{
  "contractName": "PhotoMarket",
  "abi": [
    {
      "inputs": [],
      "payable": false,
      "stateMutability": "nonpayable",
      "type": "constructor"
    },
    {
      "anonymous": false,
      "inputs": [
        {
          "indexed": false,
          "internalType": "uint256",
          "name": "id",
          "type": "uint256"
        },
        {
          "indexed": false,
          "internalType": "string",
          "name": "hash",
          "type": "string"
        },
        {
          "indexed": false,
          "internalType": "string",
          "name": "description",
          "type": "string"
        },
        {
          "indexed": false,
          "internalType": "uint256",
          "name": "tipAmount",
          "type": "uint256"
        },
        {
          "indexed": false,
          "internalType": "address payable",
          "name": "author",
          "type": "address"
        }
      ],
      "name": "ImageCreated",
      "type": "event"
    },
    {
      "anonymous": false,
      "inputs": [
        {
          "indexed": false,
          "internalType": "uint256",
          "name": "id",
          "type": "uint256"
        },
        {
          "indexed": false,
          "internalType": "string",
          "name": "hash",
          "type": "string"
        },
        {
          "indexed": false,
          "internalType": "string",
          "name": "description",
          "type": "string"
        },
        {
          "indexed": false,
          "internalType": "uint256",
          "name": "tipAmount",
          "type": "uint256"
        },
        {
          "indexed": false,
          "internalType": "address payable",
          "name": "author",
          "type": "address"
        }
      ],
      "name": "ImageTipped",
      "type": "event"
    },
    {
      "constant": true,
      "inputs": [],
      "name": "imageCount",
      "outputs": [
        {
          "internalType": "uint256",
          "name": "",
          "type": "uint256"
        }
      ],
      "payable": false,
      "stateMutability": "view",
      "type": "function"
    },
    {
      "constant": true,
      "inputs": [
        {
          "internalType": "uint256",
          "name": "",
          "type": "uint256"
        }
      ],
      "name": "images",
      "outputs": [
        {
          "internalType": "uint256",
          "name": "id",
          "type": "uint256"
        },
        {
          "internalType": "string",
          "name": "hash",
          "type": "string"
        },
        {
          "internalType": "string",
          "name": "description",
          "type": "string"
        },
        {
          "internalType": "uint256",
          "name": "tipAmount",
          "type": "uint256"
        },
        {
          "internalType": "address payable",
          "name": "author",
          "type": "address"
        }
      ],
      "payable": false,
      "stateMutability": "view",
      "type": "function"
    },
    {
      "constant": true,
      "inputs": [],
      "name": "name",
      "outputs": [
        {
          "internalType": "string",
          "name": "",
          "type": "string"
        }
      ],
      "payable": false,
      "stateMutability": "view",
      "type": "function"
    },
    {
      "constant": true,
      "inputs": [],
      "name": "owner",
      "outputs": [
        {
          "internalType": "address",
          "name": "",
          "type": "address"
        }
      ],
      "payable": false,
      "stateMutability": "view",
      "type": "function"
    },
    {
      "constant": false,
      "inputs": [
        {
          "internalType": "string",
          "name": "_imgHash",
          "type": "string"
        },
        {
          "internalType": "string",
          "name": "_description",
          "type": "string"
        }
      ],
      "name": "uploadImage",
      "outputs": [],
      "payable": false,
      "stateMutability": "nonpayable",
      "type": "function"
    },
    {
      "constant": false,
      "inputs": [
        {
          "internalType": "uint256",
          "name": "_id",
          "type": "uint256"
        }
      ],
      "name": "tipImageOwner",
      "outputs": [],
      "payable": true,
      "stateMutability": "payable",
      "type": "function"
    }
  ],
  "bytecode": "0x6080604052600060025534801561001557600080fd5b506040518060400160405280600c81526020017f50686f746f204d61726b65740000000000000000000000000000000000000000815250600190805190602001906100619291906100a7565b50336000806101000a81548173ffffffffffffffffffffffffffffffffffffffff021916908373ffffffffffffffffffffffffffffffffffffffff16021790555061014c565b828054600181600116156101000203166002900490600052602060002090601f016020900481019282601f106100e857805160ff1916838001178555610116565b82800160010185558215610116579182015b828111156101155782518255916020019190600101906100fa565b5b5090506101239190610127565b5090565b61014991905b8082111561014557600081600090555060010161012d565b5090565b90565b610ecc8061015b6000396000f3fe6080604052600436106100555760003560e01c806306fdde031461005a57806384856482146100ea5780638567ade81461024b5780638da5cb5b1461027957806392053b63146102d0578063a91b8314146102fb575b600080fd5b34801561006657600080fd5b5061006f61045a565b6040518080602001828103825283818151815260200191508051906020019080838360005b838110156100af578082015181840152602081019050610094565b50505050905090810190601f1680156100dc5780820380516001836020036101000a031916815260200191505b509250505060405180910390f35b3480156100f657600080fd5b506101236004803603602081101561010d57600080fd5b81019080803590602001909291905050506104f8565b6040518086815260200180602001806020018581526020018473ffffffffffffffffffffffffffffffffffffffff1673ffffffffffffffffffffffffffffffffffffffff168152602001838103835287818151815260200191508051906020019080838360005b838110156101a557808201518184015260208101905061018a565b50505050905090810190601f1680156101d25780820380516001836020036101000a031916815260200191505b50838103825286818151815260200191508051906020019080838360005b8381101561020b5780820151818401526020810190506101f0565b50505050905090810190601f1680156102385780820380516001836020036101000a031916815260200191505b5097505050505050505060405180910390f35b6102776004803603602081101561026157600080fd5b810190808035906020019092919050505061067e565b005b34801561028557600080fd5b5061028e610ad9565b604051808273ffffffffffffffffffffffffffffffffffffffff1673ffffffffffffffffffffffffffffffffffffffff16815260200191505060405180910390f35b3480156102dc57600080fd5b506102e5610afe565b6040518082815260200191505060405180910390f35b34801561030757600080fd5b506104586004803603604081101561031e57600080fd5b810190808035906020019064010000000081111561033b57600080fd5b82018360208201111561034d57600080fd5b8035906020019184600183028401116401000000008311171561036f57600080fd5b91908080601f016020809104026020016040519081016040528093929190818152602001838380828437600081840152601f19601f820116905080830192505050505050509192919290803590602001906401000000008111156103d257600080fd5b8201836020820111156103e457600080fd5b8035906020019184600183028401116401000000008311171561040657600080fd5b91908080601f016020809104026020016040519081016040528093929190818152602001838380828437600081840152601f19601f820116905080830192505050505050509192919290505050610b04565b005b60018054600181600116156101000203166002900480601f0160208091040260200160405190810160405280929190818152602001828054600181600116156101000203166002900480156104f05780601f106104c5576101008083540402835291602001916104f0565b820191906000526020600020905b8154815290600101906020018083116104d357829003601f168201915b505050505081565b6003602052806000526040600020600091509050806000015490806001018054600181600116156101000203166002900480601f0160208091040260200160405190810160405280929190818152602001828054600181600116156101000203166002900480156105aa5780601f1061057f576101008083540402835291602001916105aa565b820191906000526020600020905b81548152906001019060200180831161058d57829003601f168201915b505050505090806002018054600181600116156101000203166002900480601f0160208091040260200160405190810160405280929190818152602001828054600181600116156101000203166002900480156106485780601f1061061d57610100808354040283529160200191610648565b820191906000526020600020905b81548152906001019060200180831161062b57829003601f168201915b5050505050908060030154908060040160009054906101000a900473ffffffffffffffffffffffffffffffffffffffff16905085565b60008111801561069057506002548111155b61069957600080fd5b6106a1610dad565b600360008381526020019081526020016000206040518060a001604052908160008201548152602001600182018054600181600116156101000203166002900480601f0160208091040260200160405190810160405280929190818152602001828054600181600116156101000203166002900480156107625780601f1061073757610100808354040283529160200191610762565b820191906000526020600020905b81548152906001019060200180831161074557829003601f168201915b50505050508152602001600282018054600181600116156101000203166002900480601f0160208091040260200160405190810160405280929190818152602001828054600181600116156101000203166002900480156108045780601f106107d957610100808354040283529160200191610804565b820191906000526020600020905b8154815290600101906020018083116107e757829003601f168201915b50505050508152602001600382015481526020016004820160009054906101000a900473ffffffffffffffffffffffffffffffffffffffff1673ffffffffffffffffffffffffffffffffffffffff1673ffffffffffffffffffffffffffffffffffffffff168152505090506000816080015190508073ffffffffffffffffffffffffffffffffffffffff166108fc349081150290604051600060405180830381858888f193505050501580156108be573d6000803e3d6000fd5b50348260600151018260600181815250508160036000858152602001908152602001600020600082015181600001556020820151816001019080519060200190610909929190610df2565b506040820151816002019080519060200190610926929190610df2565b506060820151816003015560808201518160040160006101000a81548173ffffffffffffffffffffffffffffffffffffffff021916908373ffffffffffffffffffffffffffffffffffffffff1602179055509050507f1be5317bca8d3f70dc1efe89958be71bff36cdca33fc00a6423e25eb2f1d492f83836020015184604001518560600151856040518086815260200180602001806020018581526020018473ffffffffffffffffffffffffffffffffffffffff1673ffffffffffffffffffffffffffffffffffffffff168152602001838103835287818151815260200191508051906020019080838360005b83811015610a2f578082015181840152602081019050610a14565b50505050905090810190601f168015610a5c5780820380516001836020036101000a031916815260200191505b50838103825286818151815260200191508051906020019080838360005b83811015610a95578082015181840152602081019050610a7a565b50505050905090810190601f168015610ac25780820380516001836020036101000a031916815260200191505b5097505050505050505060405180910390a1505050565b6000809054906101000a900473ffffffffffffffffffffffffffffffffffffffff1681565b60025481565b6000825111610b1257600080fd5b6000815111610b2057600080fd5b600073ffffffffffffffffffffffffffffffffffffffff163373ffffffffffffffffffffffffffffffffffffffff161415610b5a57600080fd5b6002600081548092919060010191905055506040518060a001604052806002548152602001838152602001828152602001600081526020013373ffffffffffffffffffffffffffffffffffffffff16815250600360006002548152602001908152602001600020600082015181600001556020820151816001019080519060200190610be7929190610df2565b506040820151816002019080519060200190610c04929190610df2565b506060820151816003015560808201518160040160006101000a81548173ffffffffffffffffffffffffffffffffffffffff021916908373ffffffffffffffffffffffffffffffffffffffff1602179055509050507fc1d8dfa99b3f84f95d3f0bc4a768addeb97b83b20aef7f9cb6729e126bafd2f960025483836000336040518086815260200180602001806020018581526020018473ffffffffffffffffffffffffffffffffffffffff1673ffffffffffffffffffffffffffffffffffffffff168152602001838103835287818151815260200191508051906020019080838360005b83811015610d04578082015181840152602081019050610ce9565b50505050905090810190601f168015610d315780820380516001836020036101000a031916815260200191505b50838103825286818151815260200191508051906020019080838360005b83811015610d6a578082015181840152602081019050610d4f565b50505050905090810190601f168015610d975780820380516001836020036101000a031916815260200191505b5097505050505050505060405180910390a15050565b6040518060a0016040528060008152602001606081526020016060815260200160008152602001600073ffffffffffffffffffffffffffffffffffffffff1681525090565b828054600181600116156101000203166002900490600052602060002090601f016020900481019282601f10610e3357805160ff1916838001178555610e61565b82800160010185558215610e61579182015b82811115610e60578251825591602001919060010190610e45565b5b509050610e6e9190610e72565b5090565b610e9491905b80821115610e90576000816000905550600101610e78565b5090565b9056fea265627a7a723158209560e8395145ee900bdcfed906eaf6c7109127f0fa05fa5a4a139163f9f5b4a964736f6c63430005100032",
  "source": "pragma solidity >=0.5.0 <0.9.0;\r\n\r\ncontract PhotoMarket {\r\n  address public owner;  \r\n  string public name;\r\n  uint public imageCount = 0;\r\n  mapping(uint => Image) public images;\r\n\r\n  struct Image {\r\n    uint id;\r\n    string hash;\r\n    string description;\r\n    uint tipAmount;\r\n    address payable author;\r\n  }\r\n\r\n  event ImageCreated(\r\n    uint id,\r\n    string hash,\r\n    string description,\r\n    uint tipAmount,\r\n    address payable author\r\n  );\r\n\r\n  event ImageTipped(\r\n    uint id,\r\n    string hash,\r\n    string description,\r\n    uint tipAmount,\r\n    address payable author\r\n  );\r\n\r\n  constructor() public {\r\n    name = \"Photo Market\";\r\n    owner = msg.sender;\r\n  }\r\n\r\n  function uploadImage(string memory _imgHash, string memory _description) public {\r\n    // Make sure the image hash exists\r\n    require(bytes(_imgHash).length > 0);\r\n    // Make sure image description exists\r\n    require(bytes(_description).length > 0);\r\n    // Make sure uploader address exists\r\n    require(msg.sender!=address(0));\r\n\r\n    // Increment image id\r\n    imageCount ++;\r\n\r\n    // Add Image to the contract\r\n    images[imageCount] = Image(imageCount, _imgHash, _description, 0, msg.sender);\r\n    // Trigger an event\r\n    emit ImageCreated(imageCount, _imgHash, _description, 0, msg.sender);\r\n  }\r\n\r\n  function tipImageOwner(uint _id) public payable {\r\n    // Make sure the id is valid\r\n    require(_id > 0 && _id <= imageCount);\r\n    // Fetch the image\r\n    Image memory _image = images[_id];\r\n    // Fetch the author\r\n    address payable _author = _image.author;\r\n    // Pay the author by sending them Ether\r\n    _author.transfer(msg.value);\r\n    // Increment the tip amount\r\n    _image.tipAmount = _image.tipAmount + msg.value;\r\n    // Update the image\r\n    images[_id] = _image;\r\n    // Trigger an event\r\n    emit ImageTipped(_id, _image.hash, _image.description, _image.tipAmount, _author);\r\n  }\r\n}",
  "sourcePath": "F:\\works\\REACT\\photo-market\\src\\contracts\\PhotoMarket.sol",
  "compiler": {
    "name": "solc",
    "version": "0.5.16+commit.9c3226ce.Emscripten.clang"
  },
  "schemaVersion": "3.4.3",
  "updatedAt": "2021-11-13T09:34:32.149Z",
  "networkType": "ethereum",
  "devdoc": {
    "methods": {}
  },
  "userdoc": {
    "methods": {}
  }
}